{
  "_format": "hh-sol-artifact-1",
  "contractName": "MultipleSwap",
  "sourceName": "contracts/MultipleSwap.sol",
  "abi": [
    {
      "inputs": [],
      "name": "DAI",
      "outputs": [
        {
          "internalType": "address",
          "name": "",
          "type": "address"
        }
      ],
      "stateMutability": "view",
      "type": "function"
    },
    {
      "inputs": [],
      "name": "USDC",
      "outputs": [
        {
          "internalType": "address",
          "name": "",
          "type": "address"
        }
      ],
      "stateMutability": "view",
      "type": "function"
    },
    {
      "inputs": [],
      "name": "WETH9",
      "outputs": [
        {
          "internalType": "address",
          "name": "",
          "type": "address"
        }
      ],
      "stateMutability": "view",
      "type": "function"
    },
    {
      "inputs": [],
      "name": "poolFee",
      "outputs": [
        {
          "internalType": "uint24",
          "name": "",
          "type": "uint24"
        }
      ],
      "stateMutability": "view",
      "type": "function"
    },
    {
      "inputs": [
        {
          "internalType": "uint256",
          "name": "amountIn",
          "type": "uint256"
        }
      ],
      "name": "swapExactInputSingle",
      "outputs": [
        {
          "internalType": "uint256",
          "name": "amountOut",
          "type": "uint256"
        }
      ],
      "stateMutability": "nonpayable",
      "type": "function"
    },
    {
      "inputs": [
        {
          "internalType": "uint256",
          "name": "amountOut",
          "type": "uint256"
        },
        {
          "internalType": "uint256",
          "name": "amountInMaximum",
          "type": "uint256"
        }
      ],
      "name": "swapExactOutputSingle",
      "outputs": [
        {
          "internalType": "uint256",
          "name": "amountIn",
          "type": "uint256"
        }
      ],
      "stateMutability": "nonpayable",
      "type": "function"
    },
    {
      "inputs": [],
      "name": "swapRouter",
      "outputs": [
        {
          "internalType": "contract ISwapRouter",
          "name": "",
          "type": "address"
        }
      ],
      "stateMutability": "view",
      "type": "function"
    }
  ],
  "bytecode": "0x6080604052348015600f57600080fd5b506111138061001f6000396000f3fe608060405234801561001057600080fd5b506004361061007d5760003560e01c806389a302711161005b57806389a30271146100ee578063c31c9c071461010c578063c4b69a181461012a578063e0bab4c41461015a5761007d565b8063089fe6aa146100825780634aa4a4fc146100a057806373bd43ad146100be575b600080fd5b61008a610178565b60405161009791906109e7565b60405180910390f35b6100a861017e565b6040516100b59190610a43565b60405180910390f35b6100d860048036038101906100d39190610a99565b610196565b6040516100e59190610ad5565b60405180910390f35b6100f6610357565b6040516101039190610a43565b60405180910390f35b61011461036f565b6040516101219190610b4f565b60405180910390f35b610144600480360381019061013f9190610b6a565b610387565b6040516101519190610ad5565b60405180910390f35b6101626105af565b60405161016f9190610a43565b60405180910390f35b610bb881565b73a5da2a6f19d79a88bd280d758393793d348fcd3d81565b60006101b873a5da2a6f19d79a88bd280d758393793d348fcd3d3330856105c7565b6101eb73a5da2a6f19d79a88bd280d758393793d348fcd3d73e592427a0aece92de3edee1f18e0157c058615648461071f565b600060405180610100016040528073a5da2a6f19d79a88bd280d758393793d348fcd3d73ffffffffffffffffffffffffffffffffffffffff16815260200173e76fbc3c71499e0c522f21ad1520825bb7be671473ffffffffffffffffffffffffffffffffffffffff168152602001610bb862ffffff1681526020013373ffffffffffffffffffffffffffffffffffffffff168152602001610384426102909190610bd9565b815260200184815260200160008152602001600073ffffffffffffffffffffffffffffffffffffffff16815250905073e592427a0aece92de3edee1f18e0157c0586156473ffffffffffffffffffffffffffffffffffffffff1663414bf389826040518263ffffffff1660e01b815260040161030c9190610ceb565b6020604051808303816000875af115801561032b573d6000803e3d6000fd5b505050506040513d601f19601f8201168201806040525081019061034f9190610d1c565b915050919050565b73a4fce8264370437e718ae207805b4e6233638b9e81565b73e592427a0aece92de3edee1f18e0157c0586156481565b60006103a973e76fbc3c71499e0c522f21ad1520825bb7be67143330856105c7565b6103dc73e76fbc3c71499e0c522f21ad1520825bb7be671473e592427a0aece92de3edee1f18e0157c058615648461071f565b600060405180610100016040528073e76fbc3c71499e0c522f21ad1520825bb7be671473ffffffffffffffffffffffffffffffffffffffff16815260200173a5da2a6f19d79a88bd280d758393793d348fcd3d73ffffffffffffffffffffffffffffffffffffffff168152602001610bb862ffffff1681526020013373ffffffffffffffffffffffffffffffffffffffff168152602001610384426104819190610bd9565b8152602001858152602001848152602001600073ffffffffffffffffffffffffffffffffffffffff16815250905073e592427a0aece92de3edee1f18e0157c0586156473ffffffffffffffffffffffffffffffffffffffff1663db3e2198826040518263ffffffff1660e01b81526004016104fc9190610deb565b6020604051808303816000875af115801561051b573d6000803e3d6000fd5b505050506040513d601f19601f8201168201806040525081019061053f9190610d1c565b9150828210156105a85761057d73e76fbc3c71499e0c522f21ad1520825bb7be671473e592427a0aece92de3edee1f18e0157c05861564600061071f565b6105a773e76fbc3c71499e0c522f21ad1520825bb7be67143384866105a29190610e07565b610874565b5b5092915050565b73e76fbc3c71499e0c522f21ad1520825bb7be671481565b6000808573ffffffffffffffffffffffffffffffffffffffff166323b872dd60e01b8686866040516024016105fe93929190610e3b565b604051602081830303815290604052907bffffffffffffffffffffffffffffffffffffffffffffffffffffffff19166020820180517bffffffffffffffffffffffffffffffffffffffffffffffffffffffff83818316178352505050506040516106689190610ee3565b6000604051808303816000865af19150503d80600081146106a5576040519150601f19603f3d011682016040523d82523d6000602084013e6106aa565b606091505b50915091508180156106d857506000815114806106d75750808060200190518101906106d69190610f32565b5b5b610717576040517f08c379a000000000000000000000000000000000000000000000000000000000815260040161070e90610fbc565b60405180910390fd5b505050505050565b6000808473ffffffffffffffffffffffffffffffffffffffff1663095ea7b360e01b8585604051602401610754929190610fdc565b604051602081830303815290604052907bffffffffffffffffffffffffffffffffffffffffffffffffffffffff19166020820180517bffffffffffffffffffffffffffffffffffffffffffffffffffffffff83818316178352505050506040516107be9190610ee3565b6000604051808303816000865af19150503d80600081146107fb576040519150601f19603f3d011682016040523d82523d6000602084013e610800565b606091505b509150915081801561082e575060008151148061082d57508080602001905181019061082c9190610f32565b5b5b61086d576040517f08c379a000000000000000000000000000000000000000000000000000000000815260040161086490611051565b60405180910390fd5b5050505050565b6000808473ffffffffffffffffffffffffffffffffffffffff1663a9059cbb60e01b85856040516024016108a9929190610fdc565b604051602081830303815290604052907bffffffffffffffffffffffffffffffffffffffffffffffffffffffff19166020820180517bffffffffffffffffffffffffffffffffffffffffffffffffffffffff83818316178352505050506040516109139190610ee3565b6000604051808303816000865af19150503d8060008114610950576040519150601f19603f3d011682016040523d82523d6000602084013e610955565b606091505b509150915081801561098357506000815114806109825750808060200190518101906109819190610f32565b5b5b6109c2576040517f08c379a00000000000000000000000000000000000000000000000000000000081526004016109b9906110bd565b60405180910390fd5b5050505050565b600062ffffff82169050919050565b6109e1816109c9565b82525050565b60006020820190506109fc60008301846109d8565b92915050565b600073ffffffffffffffffffffffffffffffffffffffff82169050919050565b6000610a2d82610a02565b9050919050565b610a3d81610a22565b82525050565b6000602082019050610a586000830184610a34565b92915050565b600080fd5b6000819050919050565b610a7681610a63565b8114610a8157600080fd5b50565b600081359050610a9381610a6d565b92915050565b600060208284031215610aaf57610aae610a5e565b5b6000610abd84828501610a84565b91505092915050565b610acf81610a63565b82525050565b6000602082019050610aea6000830184610ac6565b92915050565b6000819050919050565b6000610b15610b10610b0b84610a02565b610af0565b610a02565b9050919050565b6000610b2782610afa565b9050919050565b6000610b3982610b1c565b9050919050565b610b4981610b2e565b82525050565b6000602082019050610b646000830184610b40565b92915050565b60008060408385031215610b8157610b80610a5e565b5b6000610b8f85828601610a84565b9250506020610ba085828601610a84565b9150509250929050565b7f4e487b7100000000000000000000000000000000000000000000000000000000600052601160045260246000fd5b6000610be482610a63565b9150610bef83610a63565b9250828201905080821115610c0757610c06610baa565b5b92915050565b610c1681610a22565b82525050565b610c25816109c9565b82525050565b610c3481610a63565b82525050565b610c4381610a02565b82525050565b61010082016000820151610c606000850182610c0d565b506020820151610c736020850182610c0d565b506040820151610c866040850182610c1c565b506060820151610c996060850182610c0d565b506080820151610cac6080850182610c2b565b5060a0820151610cbf60a0850182610c2b565b5060c0820151610cd260c0850182610c2b565b5060e0820151610ce560e0850182610c3a565b50505050565b600061010082019050610d016000830184610c49565b92915050565b600081519050610d1681610a6d565b92915050565b600060208284031215610d3257610d31610a5e565b5b6000610d4084828501610d07565b91505092915050565b61010082016000820151610d606000850182610c0d565b506020820151610d736020850182610c0d565b506040820151610d866040850182610c1c565b506060820151610d996060850182610c0d565b506080820151610dac6080850182610c2b565b5060a0820151610dbf60a0850182610c2b565b5060c0820151610dd260c0850182610c2b565b5060e0820151610de560e0850182610c3a565b50505050565b600061010082019050610e016000830184610d49565b92915050565b6000610e1282610a63565b9150610e1d83610a63565b9250828203905081811115610e3557610e34610baa565b5b92915050565b6000606082019050610e506000830186610a34565b610e5d6020830185610a34565b610e6a6040830184610ac6565b949350505050565b600081519050919050565b600081905092915050565b60005b83811015610ea6578082015181840152602081019050610e8b565b60008484015250505050565b6000610ebd82610e72565b610ec78185610e7d565b9350610ed7818560208601610e88565b80840191505092915050565b6000610eef8284610eb2565b915081905092915050565b60008115159050919050565b610f0f81610efa565b8114610f1a57600080fd5b50565b600081519050610f2c81610f06565b92915050565b600060208284031215610f4857610f47610a5e565b5b6000610f5684828501610f1d565b91505092915050565b600082825260208201905092915050565b7f5354460000000000000000000000000000000000000000000000000000000000600082015250565b6000610fa6600383610f5f565b9150610fb182610f70565b602082019050919050565b60006020820190508181036000830152610fd581610f99565b9050919050565b6000604082019050610ff16000830185610a34565b610ffe6020830184610ac6565b9392505050565b7f5341000000000000000000000000000000000000000000000000000000000000600082015250565b600061103b600283610f5f565b915061104682611005565b602082019050919050565b6000602082019050818103600083015261106a8161102e565b9050919050565b7f5354000000000000000000000000000000000000000000000000000000000000600082015250565b60006110a7600283610f5f565b91506110b282611071565b602082019050919050565b600060208201905081810360008301526110d68161109a565b905091905056fea2646970667358221220498daa086d3f69cd34b54c1cd635d4ecaced654b7fd5c8888d649b38a24a7a4664736f6c634300081c0033",
  "linkReferences": {},
  "deployedLinkReferences": {}
}